{
  "_format": "hh-sol-artifact-1",
  "contractName": "Exchange",
  "sourceName": "contracts/Exchange.sol",
  "abi": [
    {
      "inputs": [
        {
          "internalType": "address",
          "name": "_feeAccount",
          "type": "address"
        },
        {
          "internalType": "uint256",
          "name": "_feePercent",
          "type": "uint256"
        }
      ],
      "stateMutability": "nonpayable",
      "type": "constructor"
    },
    {
      "anonymous": false,
      "inputs": [
        {
          "indexed": false,
          "internalType": "address",
          "name": "token",
          "type": "address"
        },
        {
          "indexed": false,
          "internalType": "uint256",
          "name": "amount",
          "type": "uint256"
        },
        {
          "indexed": false,
          "internalType": "uint256",
          "name": "timestamp",
          "type": "uint256"
        }
      ],
      "name": "FlashLoan",
      "type": "event"
    },
    {
      "anonymous": false,
      "inputs": [
        {
          "indexed": false,
          "internalType": "uint256",
          "name": "id",
          "type": "uint256"
        },
        {
          "indexed": false,
          "internalType": "address",
          "name": "user",
          "type": "address"
        },
        {
          "indexed": false,
          "internalType": "address",
          "name": "tokenGet",
          "type": "address"
        },
        {
          "indexed": false,
          "internalType": "uint256",
          "name": "amountGet",
          "type": "uint256"
        },
        {
          "indexed": false,
          "internalType": "address",
          "name": "tokenGive",
          "type": "address"
        },
        {
          "indexed": false,
          "internalType": "uint256",
          "name": "amountGive",
          "type": "uint256"
        },
        {
          "indexed": false,
          "internalType": "uint256",
          "name": "timestamp",
          "type": "uint256"
        }
      ],
      "name": "OrderCancelled",
      "type": "event"
    },
    {
      "anonymous": false,
      "inputs": [
        {
          "indexed": false,
          "internalType": "uint256",
          "name": "id",
          "type": "uint256"
        },
        {
          "indexed": false,
          "internalType": "address",
          "name": "user",
          "type": "address"
        },
        {
          "indexed": false,
          "internalType": "address",
          "name": "tokenGet",
          "type": "address"
        },
        {
          "indexed": false,
          "internalType": "uint256",
          "name": "amountGet",
          "type": "uint256"
        },
        {
          "indexed": false,
          "internalType": "address",
          "name": "tokenGive",
          "type": "address"
        },
        {
          "indexed": false,
          "internalType": "uint256",
          "name": "amountGive",
          "type": "uint256"
        },
        {
          "indexed": false,
          "internalType": "uint256",
          "name": "timestamp",
          "type": "uint256"
        }
      ],
      "name": "OrderCreated",
      "type": "event"
    },
    {
      "anonymous": false,
      "inputs": [
        {
          "indexed": false,
          "internalType": "uint256",
          "name": "id",
          "type": "uint256"
        },
        {
          "indexed": false,
          "internalType": "address",
          "name": "user",
          "type": "address"
        },
        {
          "indexed": false,
          "internalType": "address",
          "name": "tokenGet",
          "type": "address"
        },
        {
          "indexed": false,
          "internalType": "uint256",
          "name": "amountGet",
          "type": "uint256"
        },
        {
          "indexed": false,
          "internalType": "address",
          "name": "tokenGive",
          "type": "address"
        },
        {
          "indexed": false,
          "internalType": "uint256",
          "name": "amountGive",
          "type": "uint256"
        },
        {
          "indexed": false,
          "internalType": "address",
          "name": "creator",
          "type": "address"
        },
        {
          "indexed": false,
          "internalType": "uint256",
          "name": "timestamp",
          "type": "uint256"
        }
      ],
      "name": "OrderFilled",
      "type": "event"
    },
    {
      "anonymous": false,
      "inputs": [
        {
          "indexed": false,
          "internalType": "address",
          "name": "token",
          "type": "address"
        },
        {
          "indexed": false,
          "internalType": "address",
          "name": "user",
          "type": "address"
        },
        {
          "indexed": false,
          "internalType": "uint256",
          "name": "amount",
          "type": "uint256"
        },
        {
          "indexed": false,
          "internalType": "uint256",
          "name": "balance",
          "type": "uint256"
        }
      ],
      "name": "TokensDeposited",
      "type": "event"
    },
    {
      "anonymous": false,
      "inputs": [
        {
          "indexed": false,
          "internalType": "address",
          "name": "token",
          "type": "address"
        },
        {
          "indexed": false,
          "internalType": "address",
          "name": "user",
          "type": "address"
        },
        {
          "indexed": false,
          "internalType": "uint256",
          "name": "amount",
          "type": "uint256"
        },
        {
          "indexed": false,
          "internalType": "uint256",
          "name": "balance",
          "type": "uint256"
        }
      ],
      "name": "TokensWithdrawn",
      "type": "event"
    },
    {
      "inputs": [
        {
          "internalType": "address",
          "name": "_token",
          "type": "address"
        },
        {
          "internalType": "address",
          "name": "_user",
          "type": "address"
        }
      ],
      "name": "activeBalanceOf",
      "outputs": [
        {
          "internalType": "uint256",
          "name": "",
          "type": "uint256"
        }
      ],
      "stateMutability": "view",
      "type": "function"
    },
    {
      "inputs": [
        {
          "internalType": "uint256",
          "name": "_id",
          "type": "uint256"
        }
      ],
      "name": "cancelOrder",
      "outputs": [],
      "stateMutability": "nonpayable",
      "type": "function"
    },
    {
      "inputs": [
        {
          "internalType": "address",
          "name": "_token",
          "type": "address"
        },
        {
          "internalType": "uint256",
          "name": "_amount",
          "type": "uint256"
        }
      ],
      "name": "depositToken",
      "outputs": [],
      "stateMutability": "nonpayable",
      "type": "function"
    },
    {
      "inputs": [],
      "name": "feeAccount",
      "outputs": [
        {
          "internalType": "address",
          "name": "",
          "type": "address"
        }
      ],
      "stateMutability": "view",
      "type": "function"
    },
    {
      "inputs": [],
      "name": "feePercent",
      "outputs": [
        {
          "internalType": "uint256",
          "name": "",
          "type": "uint256"
        }
      ],
      "stateMutability": "view",
      "type": "function"
    },
    {
      "inputs": [
        {
          "internalType": "uint256",
          "name": "_id",
          "type": "uint256"
        }
      ],
      "name": "fillOrder",
      "outputs": [],
      "stateMutability": "nonpayable",
      "type": "function"
    },
    {
      "inputs": [
        {
          "internalType": "address",
          "name": "_token",
          "type": "address"
        },
        {
          "internalType": "uint256",
          "name": "_amount",
          "type": "uint256"
        },
        {
          "internalType": "bytes",
          "name": "_data",
          "type": "bytes"
        }
      ],
      "name": "flashLoan",
      "outputs": [],
      "stateMutability": "nonpayable",
      "type": "function"
    },
    {
      "inputs": [
        {
          "internalType": "uint256",
          "name": "",
          "type": "uint256"
        }
      ],
      "name": "isOrderCancelled",
      "outputs": [
        {
          "internalType": "bool",
          "name": "",
          "type": "bool"
        }
      ],
      "stateMutability": "view",
      "type": "function"
    },
    {
      "inputs": [
        {
          "internalType": "uint256",
          "name": "",
          "type": "uint256"
        }
      ],
      "name": "isOrderFilled",
      "outputs": [
        {
          "internalType": "bool",
          "name": "",
          "type": "bool"
        }
      ],
      "stateMutability": "view",
      "type": "function"
    },
    {
      "inputs": [
        {
          "internalType": "address",
          "name": "_tokenGet",
          "type": "address"
        },
        {
          "internalType": "uint256",
          "name": "_amountGet",
          "type": "uint256"
        },
        {
          "internalType": "address",
          "name": "_tokenGive",
          "type": "address"
        },
        {
          "internalType": "uint256",
          "name": "_amountGive",
          "type": "uint256"
        }
      ],
      "name": "makeOrder",
      "outputs": [],
      "stateMutability": "nonpayable",
      "type": "function"
    },
    {
      "inputs": [],
      "name": "orderCount",
      "outputs": [
        {
          "internalType": "uint256",
          "name": "",
          "type": "uint256"
        }
      ],
      "stateMutability": "view",
      "type": "function"
    },
    {
      "inputs": [
        {
          "internalType": "uint256",
          "name": "",
          "type": "uint256"
        }
      ],
      "name": "orders",
      "outputs": [
        {
          "internalType": "uint256",
          "name": "id",
          "type": "uint256"
        },
        {
          "internalType": "address",
          "name": "user",
          "type": "address"
        },
        {
          "internalType": "address",
          "name": "tokenGet",
          "type": "address"
        },
        {
          "internalType": "uint256",
          "name": "amountGet",
          "type": "uint256"
        },
        {
          "internalType": "address",
          "name": "tokenGive",
          "type": "address"
        },
        {
          "internalType": "uint256",
          "name": "amountGive",
          "type": "uint256"
        },
        {
          "internalType": "uint256",
          "name": "timestamp",
          "type": "uint256"
        }
      ],
      "stateMutability": "view",
      "type": "function"
    },
    {
      "inputs": [
        {
          "internalType": "address",
          "name": "_token",
          "type": "address"
        },
        {
          "internalType": "address",
          "name": "_user",
          "type": "address"
        }
      ],
      "name": "totalBalanceOf",
      "outputs": [
        {
          "internalType": "uint256",
          "name": "",
          "type": "uint256"
        }
      ],
      "stateMutability": "view",
      "type": "function"
    },
    {
      "inputs": [
        {
          "internalType": "address",
          "name": "_token",
          "type": "address"
        },
        {
          "internalType": "uint256",
          "name": "_amount",
          "type": "uint256"
        }
      ],
      "name": "withdrawToken",
      "outputs": [],
      "stateMutability": "nonpayable",
      "type": "function"
    }
  ],
  "bytecode": "0x608060405234801561001057600080fd5b5060405161275a38038061275a83398181016040528101906100329190610119565b816000806101000a81548173ffffffffffffffffffffffffffffffffffffffff021916908373ffffffffffffffffffffffffffffffffffffffff160217905550806001819055505050610159565b600080fd5b600073ffffffffffffffffffffffffffffffffffffffff82169050919050565b60006100b082610085565b9050919050565b6100c0816100a5565b81146100cb57600080fd5b50565b6000815190506100dd816100b7565b92915050565b6000819050919050565b6100f6816100e3565b811461010157600080fd5b50565b600081519050610113816100ed565b92915050565b600080604083850312156101305761012f610080565b5b600061013e858286016100ce565b925050602061014f85828601610104565b9150509250929050565b6125f2806101686000396000f3fe608060405234801561001057600080fd5b50600436106100ea5760003560e01c806384d10bff1161008c578063a85c38ef11610066578063a85c38ef14610235578063cd7857961461026b578063d425cb6f1461029b578063e0232b42146102cb576100ea565b806384d10bff146101cd5780639a5c90aa146101fd5780639e281a9814610219576100ea565b8063514fcac7116100c8578063514fcac71461015957806365e17c9d1461017557806367b830ad146101935780637fd6f15c146101af576100ea565b80631b1d1c81146100ef5780632453ffa81461011f578063338b5dea1461013d575b600080fd5b610109600480360381019061010491906118ce565b6102e7565b6040516101169190611916565b60405180910390f35b610127610307565b6040516101349190611940565b60405180910390f35b610157600480360381019061015291906119b9565b61030d565b005b610173600480360381019061016e91906118ce565b61051c565b005b61017d6107b1565b60405161018a9190611a08565b60405180910390f35b6101ad60048036038101906101a891906118ce565b6107d5565b005b6101b7610a65565b6040516101c49190611940565b60405180910390f35b6101e760048036038101906101e29190611a23565b610a6b565b6040516101f49190611940565b60405180910390f35b61021760048036038101906102129190611a63565b610af2565b005b610233600480360381019061022e91906119b9565b610dd4565b005b61024f600480360381019061024a91906118ce565b611041565b6040516102629796959493929190611aca565b60405180910390f35b61028560048036038101906102809190611a23565b6110e3565b6040516102929190611940565b60405180910390f35b6102b560048036038101906102b091906118ce565b61116a565b6040516102c29190611916565b60405180910390f35b6102e560048036038101906102e09190611c7f565b61118a565b005b60046020528060005260406000206000915054906101000a900460ff1681565b60025481565b80600660008473ffffffffffffffffffffffffffffffffffffffff1673ffffffffffffffffffffffffffffffffffffffff16815260200190815260200160002060003373ffffffffffffffffffffffffffffffffffffffff1673ffffffffffffffffffffffffffffffffffffffff16815260200190815260200160002060008282546103999190611d1d565b925050819055507f9d572f819ae4f4b4839dda54bcb4cc8d7c2f0a67807db864716b20eafb515359823383600660008773ffffffffffffffffffffffffffffffffffffffff1673ffffffffffffffffffffffffffffffffffffffff16815260200190815260200160002060003373ffffffffffffffffffffffffffffffffffffffff1673ffffffffffffffffffffffffffffffffffffffff168152602001908152602001600020546040516104519493929190611d51565b60405180910390a18173ffffffffffffffffffffffffffffffffffffffff166323b872dd3330846040518463ffffffff1660e01b815260040161049693929190611d96565b6020604051808303816000875af11580156104b5573d6000803e3d6000fd5b505050506040513d601f19601f820116820180604052508101906104d99190611df9565b610518576040517f08c379a000000000000000000000000000000000000000000000000000000000815260040161050f90611e83565b60405180910390fd5b5050565b600060036000838152602001908152602001600020905081816000015414610579576040517f08c379a000000000000000000000000000000000000000000000000000000000815260040161057090611eef565b60405180910390fd5b3373ffffffffffffffffffffffffffffffffffffffff168160010160009054906101000a900473ffffffffffffffffffffffffffffffffffffffff1673ffffffffffffffffffffffffffffffffffffffff161461060b576040517f08c379a000000000000000000000000000000000000000000000000000000000815260040161060290611f5b565b60405180910390fd5b60016004600084815260200190815260200160002060006101000a81548160ff0219169083151502179055508060050154600760008360040160009054906101000a900473ffffffffffffffffffffffffffffffffffffffff1673ffffffffffffffffffffffffffffffffffffffff1673ffffffffffffffffffffffffffffffffffffffff16815260200190815260200160002060008360010160009054906101000a900473ffffffffffffffffffffffffffffffffffffffff1673ffffffffffffffffffffffffffffffffffffffff1673ffffffffffffffffffffffffffffffffffffffff168152602001908152602001600020600082825461070f9190611f7b565b925050819055507f0fc466a139855d3b21f9eb9dfdadd9dfdaf9b58bd400756b26083b7077055e278160000154338360020160009054906101000a900473ffffffffffffffffffffffffffffffffffffffff1684600301548560040160009054906101000a900473ffffffffffffffffffffffffffffffffffffffff168660050154426040516107a59796959493929190611aca565b60405180910390a15050565b60008054906101000a900473ffffffffffffffffffffffffffffffffffffffff1681565b6000811180156107e757506002548111155b610826576040517f08c379a000000000000000000000000000000000000000000000000000000000815260040161081d90611eef565b60405180910390fd5b6005600082815260200190815260200160002060009054906101000a900460ff1615610887576040517f08c379a000000000000000000000000000000000000000000000000000000000815260040161087e90612021565b60405180910390fd5b6004600082815260200190815260200160002060009054906101000a900460ff16156108e8576040517f08c379a00000000000000000000000000000000000000000000000000000000081526004016108df906120b3565b60405180910390fd5b600060036000838152602001908152602001600020905080600301546109328260020160009054906101000a900473ffffffffffffffffffffffffffffffffffffffff16336110e3565b61093c9190611d1d565b61096a8260020160009054906101000a900473ffffffffffffffffffffffffffffffffffffffff1633610a6b565b10156109ab576040517f08c379a00000000000000000000000000000000000000000000000000000000081526004016109a29061211f565b60405180910390fd5b610a3181600001548260010160009054906101000a900473ffffffffffffffffffffffffffffffffffffffff168360020160009054906101000a900473ffffffffffffffffffffffffffffffffffffffff1684600301548560040160009054906101000a900473ffffffffffffffffffffffffffffffffffffffff16866005015461147a565b6001600560008360000154815260200190815260200160002060006101000a81548160ff0219169083151502179055505050565b60015481565b6000600660008473ffffffffffffffffffffffffffffffffffffffff1673ffffffffffffffffffffffffffffffffffffffff16815260200190815260200160002060008373ffffffffffffffffffffffffffffffffffffffff1673ffffffffffffffffffffffffffffffffffffffff16815260200190815260200160002054905092915050565b80610afd83336110e3565b610b079190611d1d565b610b118333610a6b565b1015610b52576040517f08c379a0000000000000000000000000000000000000000000000000000000008152600401610b499061211f565b60405180910390fd5b60026000815480929190610b659061213f565b91905055506040518060e0016040528060025481526020013373ffffffffffffffffffffffffffffffffffffffff1681526020018573ffffffffffffffffffffffffffffffffffffffff1681526020018481526020018373ffffffffffffffffffffffffffffffffffffffff168152602001828152602001428152506003600060025481526020019081526020016000206000820151816000015560208201518160010160006101000a81548173ffffffffffffffffffffffffffffffffffffffff021916908373ffffffffffffffffffffffffffffffffffffffff16021790555060408201518160020160006101000a81548173ffffffffffffffffffffffffffffffffffffffff021916908373ffffffffffffffffffffffffffffffffffffffff1602179055506060820151816003015560808201518160040160006101000a81548173ffffffffffffffffffffffffffffffffffffffff021916908373ffffffffffffffffffffffffffffffffffffffff16021790555060a0820151816005015560c0820151816006015590505080600760008473ffffffffffffffffffffffffffffffffffffffff1673ffffffffffffffffffffffffffffffffffffffff16815260200190815260200160002060003373ffffffffffffffffffffffffffffffffffffffff1673ffffffffffffffffffffffffffffffffffffffff1681526020019081526020016000206000828254610d829190611d1d565b925050819055507ff4e94e11847dd5a076a1f8bc24ec98dfa58292de438d62656742b833fe022ec0600254338686868642604051610dc69796959493929190611aca565b60405180910390a150505050565b80610ddf83336110e3565b610de98433610a6b565b610df39190611f7b565b1015610e34576040517f08c379a0000000000000000000000000000000000000000000000000000000008152600401610e2b9061211f565b60405180910390fd5b80600660008473ffffffffffffffffffffffffffffffffffffffff1673ffffffffffffffffffffffffffffffffffffffff16815260200190815260200160002060003373ffffffffffffffffffffffffffffffffffffffff1673ffffffffffffffffffffffffffffffffffffffff1681526020019081526020016000206000828254610ec09190611f7b565b925050819055507f6b83b455c317523498e4e86849438d4356ad79ba6b355a5e6d5bc05eca6c780f823383600660008773ffffffffffffffffffffffffffffffffffffffff1673ffffffffffffffffffffffffffffffffffffffff16815260200190815260200160002060003373ffffffffffffffffffffffffffffffffffffffff1673ffffffffffffffffffffffffffffffffffffffff16815260200190815260200160002054604051610f789493929190611d51565b60405180910390a18173ffffffffffffffffffffffffffffffffffffffff1663a9059cbb33836040518363ffffffff1660e01b8152600401610fbb929190612187565b6020604051808303816000875af1158015610fda573d6000803e3d6000fd5b505050506040513d601f19601f82011682018060405250810190610ffe9190611df9565b61103d576040517f08c379a000000000000000000000000000000000000000000000000000000000815260040161103490611e83565b60405180910390fd5b5050565b60036020528060005260406000206000915090508060000154908060010160009054906101000a900473ffffffffffffffffffffffffffffffffffffffff16908060020160009054906101000a900473ffffffffffffffffffffffffffffffffffffffff16908060030154908060040160009054906101000a900473ffffffffffffffffffffffffffffffffffffffff16908060050154908060060154905087565b6000600760008473ffffffffffffffffffffffffffffffffffffffff1673ffffffffffffffffffffffffffffffffffffffff16815260200190815260200160002060008373ffffffffffffffffffffffffffffffffffffffff1673ffffffffffffffffffffffffffffffffffffffff16815260200190815260200160002054905092915050565b60056020528060005260406000206000915054906101000a900460ff1681565b60008373ffffffffffffffffffffffffffffffffffffffff166370a08231306040518263ffffffff1660e01b81526004016111c59190611a08565b602060405180830381865afa1580156111e2573d6000803e3d6000fd5b505050506040513d601f19601f8201168201806040525081019061120691906121c5565b90506000811161124b576040517f08c379a000000000000000000000000000000000000000000000000000000000815260040161124290612264565b60405180910390fd5b8373ffffffffffffffffffffffffffffffffffffffff1663a9059cbb33856040518363ffffffff1660e01b8152600401611286929190612187565b6020604051808303816000875af11580156112a5573d6000803e3d6000fd5b505050506040513d601f19601f820116820180604052508101906112c99190611df9565b611308576040517f08c379a00000000000000000000000000000000000000000000000000000000081526004016112ff906122f6565b60405180910390fd5b3373ffffffffffffffffffffffffffffffffffffffff1663958fa2808585856040518463ffffffff1660e01b815260040161134593929190612395565b600060405180830381600087803b15801561135f57600080fd5b505af1158015611373573d6000803e3d6000fd5b5050505060008473ffffffffffffffffffffffffffffffffffffffff166370a08231306040518263ffffffff1660e01b81526004016113b29190611a08565b602060405180830381865afa1580156113cf573d6000803e3d6000fd5b505050506040513d601f19601f820116820180604052508101906113f391906121c5565b905081811015611438576040517f08c379a000000000000000000000000000000000000000000000000000000000815260040161142f90612445565b60405180910390fd5b7f31aaad38f00845a242d16ae90d7bd72fc68f0e22581470f9dc0de241210c288685854260405161146b93929190612465565b60405180910390a15050505050565b600060646001548561148c919061249c565b611496919061250d565b905080846114a49190611d1d565b600660008773ffffffffffffffffffffffffffffffffffffffff1673ffffffffffffffffffffffffffffffffffffffff16815260200190815260200160002060003373ffffffffffffffffffffffffffffffffffffffff1673ffffffffffffffffffffffffffffffffffffffff168152602001908152602001600020600082825461152f9190611f7b565b9250508190555083600660008773ffffffffffffffffffffffffffffffffffffffff1673ffffffffffffffffffffffffffffffffffffffff16815260200190815260200160002060008873ffffffffffffffffffffffffffffffffffffffff1673ffffffffffffffffffffffffffffffffffffffff16815260200190815260200160002060008282546115c29190611d1d565b9250508190555080600660008773ffffffffffffffffffffffffffffffffffffffff1673ffffffffffffffffffffffffffffffffffffffff16815260200190815260200160002060008060009054906101000a900473ffffffffffffffffffffffffffffffffffffffff1673ffffffffffffffffffffffffffffffffffffffff1673ffffffffffffffffffffffffffffffffffffffff16815260200190815260200160002060008282546116769190611d1d565b9250508190555081600660008573ffffffffffffffffffffffffffffffffffffffff1673ffffffffffffffffffffffffffffffffffffffff16815260200190815260200160002060008873ffffffffffffffffffffffffffffffffffffffff1673ffffffffffffffffffffffffffffffffffffffff16815260200190815260200160002060008282546117099190611f7b565b9250508190555081600660008573ffffffffffffffffffffffffffffffffffffffff1673ffffffffffffffffffffffffffffffffffffffff16815260200190815260200160002060003373ffffffffffffffffffffffffffffffffffffffff1673ffffffffffffffffffffffffffffffffffffffff168152602001908152602001600020600082825461179c9190611d1d565b9250508190555081600760008573ffffffffffffffffffffffffffffffffffffffff1673ffffffffffffffffffffffffffffffffffffffff16815260200190815260200160002060008873ffffffffffffffffffffffffffffffffffffffff1673ffffffffffffffffffffffffffffffffffffffff168152602001908152602001600020600082825461182f9190611f7b565b925050819055507f3f18c6d086d994230a01522d5756546e531baf4669ec8aea8cb68180b184c3848733878787878c4260405161187398979695949392919061253e565b60405180910390a150505050505050565b6000604051905090565b600080fd5b600080fd5b6000819050919050565b6118ab81611898565b81146118b657600080fd5b50565b6000813590506118c8816118a2565b92915050565b6000602082840312156118e4576118e361188e565b5b60006118f2848285016118b9565b91505092915050565b60008115159050919050565b611910816118fb565b82525050565b600060208201905061192b6000830184611907565b92915050565b61193a81611898565b82525050565b60006020820190506119556000830184611931565b92915050565b600073ffffffffffffffffffffffffffffffffffffffff82169050919050565b60006119868261195b565b9050919050565b6119968161197b565b81146119a157600080fd5b50565b6000813590506119b38161198d565b92915050565b600080604083850312156119d0576119cf61188e565b5b60006119de858286016119a4565b92505060206119ef858286016118b9565b9150509250929050565b611a028161197b565b82525050565b6000602082019050611a1d60008301846119f9565b92915050565b60008060408385031215611a3a57611a3961188e565b5b6000611a48858286016119a4565b9250506020611a59858286016119a4565b9150509250929050565b60008060008060808587031215611a7d57611a7c61188e565b5b6000611a8b878288016119a4565b9450506020611a9c878288016118b9565b9350506040611aad878288016119a4565b9250506060611abe878288016118b9565b91505092959194509250565b600060e082019050611adf600083018a611931565b611aec60208301896119f9565b611af960408301886119f9565b611b066060830187611931565b611b1360808301866119f9565b611b2060a0830185611931565b611b2d60c0830184611931565b98975050505050505050565b600080fd5b600080fd5b6000601f19601f8301169050919050565b7f4e487b7100000000000000000000000000000000000000000000000000000000600052604160045260246000fd5b611b8c82611b43565b810181811067ffffffffffffffff82111715611bab57611baa611b54565b5b80604052505050565b6000611bbe611884565b9050611bca8282611b83565b919050565b600067ffffffffffffffff821115611bea57611be9611b54565b5b611bf382611b43565b9050602081019050919050565b82818337600083830152505050565b6000611c22611c1d84611bcf565b611bb4565b905082815260208101848484011115611c3e57611c3d611b3e565b5b611c49848285611c00565b509392505050565b600082601f830112611c6657611c65611b39565b5b8135611c76848260208601611c0f565b91505092915050565b600080600060608486031215611c9857611c9761188e565b5b6000611ca6868287016119a4565b9350506020611cb7868287016118b9565b925050604084013567ffffffffffffffff811115611cd857611cd7611893565b5b611ce486828701611c51565b9150509250925092565b7f4e487b7100000000000000000000000000000000000000000000000000000000600052601160045260246000fd5b6000611d2882611898565b9150611d3383611898565b9250828201905080821115611d4b57611d4a611cee565b5b92915050565b6000608082019050611d6660008301876119f9565b611d7360208301866119f9565b611d806040830185611931565b611d8d6060830184611931565b95945050505050565b6000606082019050611dab60008301866119f9565b611db860208301856119f9565b611dc56040830184611931565b949350505050565b611dd6816118fb565b8114611de157600080fd5b50565b600081519050611df381611dcd565b92915050565b600060208284031215611e0f57611e0e61188e565b5b6000611e1d84828501611de4565b91505092915050565b600082825260208201905092915050565b7f45786368616e67653a20546f6b656e207472616e73666572206661696c656400600082015250565b6000611e6d601f83611e26565b9150611e7882611e37565b602082019050919050565b60006020820190508181036000830152611e9c81611e60565b9050919050565b7f45786368616e67653a204f7264657220646f6573206e6f742065786973740000600082015250565b6000611ed9601e83611e26565b9150611ee482611ea3565b602082019050919050565b60006020820190508181036000830152611f0881611ecc565b9050919050565b7f45786368616e67653a204e6f7420746865206f776e6572000000000000000000600082015250565b6000611f45601783611e26565b9150611f5082611f0f565b602082019050919050565b60006020820190508181036000830152611f7481611f38565b9050919050565b6000611f8682611898565b9150611f9183611898565b9250828203905081811115611fa957611fa8611cee565b5b92915050565b7f45786368616e67653a204f726465722068617320616c7265616479206265656e60008201527f2066696c6c656400000000000000000000000000000000000000000000000000602082015250565b600061200b602783611e26565b915061201682611faf565b604082019050919050565b6000602082019050818103600083015261203a81611ffe565b9050919050565b7f45786368616e67653a204f7264657220686173206265656e2063616e63656c6c60008201527f6564000000000000000000000000000000000000000000000000000000000000602082015250565b600061209d602283611e26565b91506120a882612041565b604082019050919050565b600060208201905081810360008301526120cc81612090565b9050919050565b7f45786368616e67653a20496e73756666696369656e742062616c616e63650000600082015250565b6000612109601e83611e26565b9150612114826120d3565b602082019050919050565b60006020820190508181036000830152612138816120fc565b9050919050565b600061214a82611898565b91507fffffffffffffffffffffffffffffffffffffffffffffffffffffffffffffffff820361217c5761217b611cee565b5b600182019050919050565b600060408201905061219c60008301856119f9565b6121a96020830184611931565b9392505050565b6000815190506121bf816118a2565b92915050565b6000602082840312156121db576121da61188e565b5b60006121e9848285016121b0565b91505092915050565b7f466c6173684c6f616e50726f76696465723a20496e73756666696369656e742060008201527f66756e647320746f206c6f616e00000000000000000000000000000000000000602082015250565b600061224e602d83611e26565b9150612259826121f2565b604082019050919050565b6000602082019050818103600083015261227d81612241565b9050919050565b7f466c6173684c6f616e50726f76696465723a205472616e73666572206661696c60008201527f6564000000000000000000000000000000000000000000000000000000000000602082015250565b60006122e0602283611e26565b91506122eb82612284565b604082019050919050565b6000602082019050818103600083015261230f816122d3565b9050919050565b600081519050919050565b600082825260208201905092915050565b60005b83811015612350578082015181840152602081019050612335565b60008484015250505050565b600061236782612316565b6123718185612321565b9350612381818560208601612332565b61238a81611b43565b840191505092915050565b60006060820190506123aa60008301866119f9565b6123b76020830185611931565b81810360408301526123c9818461235c565b9050949350505050565b7f466c6173684c6f616e50726f76696465723a2046756e6473206e6f742072656360008201527f6569766564000000000000000000000000000000000000000000000000000000602082015250565b600061242f602583611e26565b915061243a826123d3565b604082019050919050565b6000602082019050818103600083015261245e81612422565b9050919050565b600060608201905061247a60008301866119f9565b6124876020830185611931565b6124946040830184611931565b949350505050565b60006124a782611898565b91506124b283611898565b92508282026124c081611898565b915082820484148315176124d7576124d6611cee565b5b5092915050565b7f4e487b7100000000000000000000000000000000000000000000000000000000600052601260045260246000fd5b600061251882611898565b915061252383611898565b925082612533576125326124de565b5b828204905092915050565b600061010082019050612554600083018b611931565b612561602083018a6119f9565b61256e60408301896119f9565b61257b6060830188611931565b61258860808301876119f9565b61259560a0830186611931565b6125a260c08301856119f9565b6125af60e0830184611931565b999850505050505050505056fea2646970667358221220ddd5284b2426a6a78e0ce8e81f407eb743aea684a5cbb2533ec022205950c17964736f6c634300081c0033",
  "linkReferences": {},
  "deployedLinkReferences": {}
}